{
  "_format": "hh-sol-artifact-1",
  "contractName": "chai",
  "sourceName": "contracts/Chai.sol",
  "abi": [
    {
      "inputs": [
        {
          "internalType": "string[]",
          "name": "_candidateNames",
          "type": "string[]"
        },
        {
          "internalType": "uint256",
          "name": "_durationInMinutes",
          "type": "uint256"
        }
      ],
      "stateMutability": "nonpayable",
      "type": "constructor"
    },
    {
      "inputs": [
        {
          "internalType": "string",
          "name": "_name",
          "type": "string"
        }
      ],
      "name": "addCandidate",
      "outputs": [],
      "stateMutability": "nonpayable",
      "type": "function"
    },
    {
      "inputs": [
        {
          "internalType": "string",
          "name": "name",
          "type": "string"
        },
        {
          "internalType": "string",
          "name": "message",
          "type": "string"
        }
      ],
      "name": "buyChai",
      "outputs": [],
      "stateMutability": "payable",
      "type": "function"
    },
    {
      "inputs": [
        {
          "internalType": "uint256",
          "name": "",
          "type": "uint256"
        }
      ],
      "name": "candidates",
      "outputs": [
        {
          "internalType": "string",
          "name": "name",
          "type": "string"
        },
        {
          "internalType": "uint256",
          "name": "voteCount",
          "type": "uint256"
        }
      ],
      "stateMutability": "view",
      "type": "function"
    },
    {
      "inputs": [],
      "name": "getAllVotesOfCandiates",
      "outputs": [
        {
          "components": [
            {
              "internalType": "string",
              "name": "name",
              "type": "string"
            },
            {
              "internalType": "uint256",
              "name": "voteCount",
              "type": "uint256"
            }
          ],
          "internalType": "struct chai.Candidate[]",
          "name": "",
          "type": "tuple[]"
        }
      ],
      "stateMutability": "view",
      "type": "function"
    },
    {
      "inputs": [],
      "name": "getMemos",
      "outputs": [
        {
          "components": [
            {
              "internalType": "string",
              "name": "name",
              "type": "string"
            },
            {
              "internalType": "string",
              "name": "message",
              "type": "string"
            },
            {
              "internalType": "uint256",
              "name": "timestamp",
              "type": "uint256"
            },
            {
              "internalType": "address",
              "name": "from",
              "type": "address"
            }
          ],
          "internalType": "struct chai.Memo[]",
          "name": "",
          "type": "tuple[]"
        }
      ],
      "stateMutability": "view",
      "type": "function"
    },
    {
      "inputs": [],
      "name": "getRemainingTime",
      "outputs": [
        {
          "internalType": "uint256",
          "name": "",
          "type": "uint256"
        }
      ],
      "stateMutability": "view",
      "type": "function"
    },
    {
      "inputs": [],
      "name": "getVotingStatus",
      "outputs": [
        {
          "internalType": "bool",
          "name": "",
          "type": "bool"
        }
      ],
      "stateMutability": "view",
      "type": "function"
    },
    {
      "inputs": [
        {
          "internalType": "uint256",
          "name": "_candidateIndex",
          "type": "uint256"
        }
      ],
      "name": "vote",
      "outputs": [],
      "stateMutability": "nonpayable",
      "type": "function"
    },
    {
      "inputs": [
        {
          "internalType": "address",
          "name": "",
          "type": "address"
        }
      ],
      "name": "voters",
      "outputs": [
        {
          "internalType": "bool",
          "name": "",
          "type": "bool"
        }
      ],
      "stateMutability": "view",
      "type": "function"
    },
    {
      "inputs": [],
      "name": "votingEnd",
      "outputs": [
        {
          "internalType": "uint256",
          "name": "",
          "type": "uint256"
        }
      ],
      "stateMutability": "view",
      "type": "function"
    },
    {
      "inputs": [],
      "name": "votingStart",
      "outputs": [
        {
          "internalType": "uint256",
          "name": "",
          "type": "uint256"
        }
      ],
      "stateMutability": "view",
      "type": "function"
    }
  ],
  "bytecode": "0x60806040523480156200001157600080fd5b506040516200200838038062002008833981810160405281019062000037919062000419565b60005b8251811015620000dc57600060405180604001604052808584815181106200006757620000666200047f565b5b60200260200101518152602001600081525090806001815401808255809150506001900390600052602060002090600202016000909190919091506000820151816000019081620000b99190620006ef565b506020820151816001015550508080620000d39062000805565b9150506200003a565b5033600560006101000a81548173ffffffffffffffffffffffffffffffffffffffff021916908373ffffffffffffffffffffffffffffffffffffffff16021790555042600281905550603c8162000134919062000852565b426200014191906200089d565b6003819055505050620008d8565b6000604051905090565b600080fd5b600080fd5b600080fd5b6000601f19601f8301169050919050565b7f4e487b7100000000000000000000000000000000000000000000000000000000600052604160045260246000fd5b620001b38262000168565b810181811067ffffffffffffffff82111715620001d557620001d462000179565b5b80604052505050565b6000620001ea6200014f565b9050620001f88282620001a8565b919050565b600067ffffffffffffffff8211156200021b576200021a62000179565b5b602082029050602081019050919050565b600080fd5b600080fd5b600067ffffffffffffffff82111562000254576200025362000179565b5b6200025f8262000168565b9050602081019050919050565b60005b838110156200028c5780820151818401526020810190506200026f565b60008484015250505050565b6000620002af620002a98462000236565b620001de565b905082815260208101848484011115620002ce57620002cd62000231565b5b620002db8482856200026c565b509392505050565b600082601f830112620002fb57620002fa62000163565b5b81516200030d84826020860162000298565b91505092915050565b60006200032d6200032784620001fd565b620001de565b905080838252602082019050602084028301858111156200035357620003526200022c565b5b835b81811015620003a157805167ffffffffffffffff8111156200037c576200037b62000163565b5b8086016200038b8982620002e3565b8552602085019450505060208101905062000355565b5050509392505050565b600082601f830112620003c357620003c262000163565b5b8151620003d584826020860162000316565b91505092915050565b6000819050919050565b620003f381620003de565b8114620003ff57600080fd5b50565b6000815190506200041381620003e8565b92915050565b6000806040838503121562000433576200043262000159565b5b600083015167ffffffffffffffff8111156200045457620004536200015e565b5b6200046285828601620003ab565b9250506020620004758582860162000402565b9150509250929050565b7f4e487b7100000000000000000000000000000000000000000000000000000000600052603260045260246000fd5b600081519050919050565b7f4e487b7100000000000000000000000000000000000000000000000000000000600052602260045260246000fd5b600060028204905060018216806200050157607f821691505b602082108103620005175762000516620004b9565b5b50919050565b60008190508160005260206000209050919050565b60006020601f8301049050919050565b600082821b905092915050565b600060088302620005817fffffffffffffffffffffffffffffffffffffffffffffffffffffffffffffffff8262000542565b6200058d868362000542565b95508019841693508086168417925050509392505050565b6000819050919050565b6000620005d0620005ca620005c484620003de565b620005a5565b620003de565b9050919050565b6000819050919050565b620005ec83620005af565b62000604620005fb82620005d7565b8484546200054f565b825550505050565b600090565b6200061b6200060c565b62000628818484620005e1565b505050565b5b8181101562000650576200064460008262000611565b6001810190506200062e565b5050565b601f8211156200069f5762000669816200051d565b620006748462000532565b8101602085101562000684578190505b6200069c620006938562000532565b8301826200062d565b50505b505050565b600082821c905092915050565b6000620006c460001984600802620006a4565b1980831691505092915050565b6000620006df8383620006b1565b9150826002028217905092915050565b620006fa82620004ae565b67ffffffffffffffff81111562000716576200071562000179565b5b620007228254620004e8565b6200072f82828562000654565b600060209050601f83116001811462000767576000841562000752578287015190505b6200075e8582620006d1565b865550620007ce565b601f19841662000777866200051d565b60005b82811015620007a1578489015182556001820191506020850194506020810190506200077a565b86831015620007c15784890151620007bd601f891682620006b1565b8355505b6001600288020188555050505b505050505050565b7f4e487b7100000000000000000000000000000000000000000000000000000000600052601160045260246000fd5b60006200081282620003de565b91507fffffffffffffffffffffffffffffffffffffffffffffffffffffffffffffffff8203620008475762000846620007d6565b5b600182019050919050565b60006200085f82620003de565b91506200086c83620003de565b92508282026200087c81620003de565b91508282048414831517620008965762000895620007d6565b5b5092915050565b6000620008aa82620003de565b9150620008b783620003de565b9250828201905080821115620008d257620008d1620007d6565b5b92915050565b61172080620008e86000396000f3fe60806040526004361061009c5760003560e01c8063581c281c11610064578063581c281c146101875780636a13d859146101b257806385a38635146101ce578063865c5172146101f9578063a3ec138d14610224578063efb98bcf146102615761009c565b80630121b93f146100a1578063101158af146100ca5780633477ee2e146100f5578063462e91ec146101335780634d6bda5f1461015c575b600080fd5b3480156100ad57600080fd5b506100c860048036038101906100c39190610add565b61028c565b005b3480156100d657600080fd5b506100df6103f5565b6040516100ec9190610b19565b60405180910390f35b34801561010157600080fd5b5061011c60048036038101906101179190610add565b6103fb565b60405161012a929190610bc4565b60405180910390f35b34801561013f57600080fd5b5061015a60048036038101906101559190610d29565b6104b7565b005b34801561016857600080fd5b50610171610577565b60405161017e9190610eca565b60405180910390f35b34801561019357600080fd5b5061019c610672565b6040516101a99190610f07565b60405180910390f35b6101cc60048036038101906101c79190610f22565b61068c565b005b3480156101da57600080fd5b506101e361081d565b6040516101f09190610b19565b60405180910390f35b34801561020557600080fd5b5061020e610823565b60405161021b9190611107565b60405180910390f35b34801561023057600080fd5b5061024b60048036038101906102469190611155565b610a06565b6040516102589190610f07565b60405180910390f35b34801561026d57600080fd5b50610276610a26565b6040516102839190610b19565b60405180910390f35b600160003373ffffffffffffffffffffffffffffffffffffffff1673ffffffffffffffffffffffffffffffffffffffff16815260200190815260200160002060009054906101000a900460ff1615610319576040517f08c379a0000000000000000000000000000000000000000000000000000000008152600401610310906111ce565b60405180910390fd5b6000805490508110610360576040517f08c379a00000000000000000000000000000000000000000000000000000000081526004016103579061123a565b60405180910390fd5b600081815481106103745761037361125a565b5b90600052602060002090600202016001016000815480929190610396906112b8565b919050555060018060003373ffffffffffffffffffffffffffffffffffffffff1673ffffffffffffffffffffffffffffffffffffffff16815260200190815260200160002060006101000a81548160ff02191690831515021790555050565b60025481565b6000818154811061040b57600080fd5b906000526020600020906002020160009150905080600001805461042e9061132f565b80601f016020809104026020016040519081016040528092919081815260200182805461045a9061132f565b80156104a75780601f1061047c576101008083540402835291602001916104a7565b820191906000526020600020905b81548152906001019060200180831161048a57829003601f168201915b5050505050908060010154905082565b600560009054906101000a900473ffffffffffffffffffffffffffffffffffffffff1673ffffffffffffffffffffffffffffffffffffffff163373ffffffffffffffffffffffffffffffffffffffff161461051157600080fd5b60006040518060400160405280838152602001600081525090806001815401808255809150506001900390600052602060002090600202016000909190919091506000820151816000019081610567919061150c565b5060208201518160010155505050565b60606000805480602002602001604051908101604052809291908181526020016000905b8282101561066957838290600052602060002090600202016040518060400160405290816000820180546105ce9061132f565b80601f01602080910402602001604051908101604052809291908181526020018280546105fa9061132f565b80156106475780601f1061061c57610100808354040283529160200191610647565b820191906000526020600020905b81548152906001019060200180831161062a57829003601f168201915b505050505081526020016001820154815250508152602001906001019061059b565b50505050905090565b60006002544210158015610687575060035442105b905090565b600034116106cf576040517f08c379a00000000000000000000000000000000000000000000000000000000081526004016106c69061162a565b60405180910390fd5b600560009054906101000a900473ffffffffffffffffffffffffffffffffffffffff1673ffffffffffffffffffffffffffffffffffffffff166108fc349081150290604051600060405180830381858888f19350505050158015610737573d6000803e3d6000fd5b50600460405180608001604052808481526020018381526020014281526020013373ffffffffffffffffffffffffffffffffffffffff16815250908060018154018082558091505060019003906000526020600020906004020160009091909190915060008201518160000190816107af919061150c565b5060208201518160010190816107c5919061150c565b506040820151816002015560608201518160030160006101000a81548173ffffffffffffffffffffffffffffffffffffffff021916908373ffffffffffffffffffffffffffffffffffffffff16021790555050505050565b60035481565b60606004805480602002602001604051908101604052809291908181526020016000905b828210156109fd578382906000526020600020906004020160405180608001604052908160008201805461087a9061132f565b80601f01602080910402602001604051908101604052809291908181526020018280546108a69061132f565b80156108f35780601f106108c8576101008083540402835291602001916108f3565b820191906000526020600020905b8154815290600101906020018083116108d657829003601f168201915b5050505050815260200160018201805461090c9061132f565b80601f01602080910402602001604051908101604052809291908181526020018280546109389061132f565b80156109855780601f1061095a57610100808354040283529160200191610985565b820191906000526020600020905b81548152906001019060200180831161096857829003601f168201915b50505050508152602001600282015481526020016003820160009054906101000a900473ffffffffffffffffffffffffffffffffffffffff1673ffffffffffffffffffffffffffffffffffffffff1673ffffffffffffffffffffffffffffffffffffffff168152505081526020019060010190610847565b50505050905090565b60016020528060005260406000206000915054906101000a900460ff1681565b6000600254421015610a6d576040517f08c379a0000000000000000000000000000000000000000000000000000000008152600401610a6490611696565b60405180910390fd5b6003544210610a7f5760009050610a90565b42600354610a8d91906116b6565b90505b90565b6000604051905090565b600080fd5b600080fd5b6000819050919050565b610aba81610aa7565b8114610ac557600080fd5b50565b600081359050610ad781610ab1565b92915050565b600060208284031215610af357610af2610a9d565b5b6000610b0184828501610ac8565b91505092915050565b610b1381610aa7565b82525050565b6000602082019050610b2e6000830184610b0a565b92915050565b600081519050919050565b600082825260208201905092915050565b60005b83811015610b6e578082015181840152602081019050610b53565b60008484015250505050565b6000601f19601f8301169050919050565b6000610b9682610b34565b610ba08185610b3f565b9350610bb0818560208601610b50565b610bb981610b7a565b840191505092915050565b60006040820190508181036000830152610bde8185610b8b565b9050610bed6020830184610b0a565b9392505050565b600080fd5b600080fd5b7f4e487b7100000000000000000000000000000000000000000000000000000000600052604160045260246000fd5b610c3682610b7a565b810181811067ffffffffffffffff82111715610c5557610c54610bfe565b5b80604052505050565b6000610c68610a93565b9050610c748282610c2d565b919050565b600067ffffffffffffffff821115610c9457610c93610bfe565b5b610c9d82610b7a565b9050602081019050919050565b82818337600083830152505050565b6000610ccc610cc784610c79565b610c5e565b905082815260208101848484011115610ce857610ce7610bf9565b5b610cf3848285610caa565b509392505050565b600082601f830112610d1057610d0f610bf4565b5b8135610d20848260208601610cb9565b91505092915050565b600060208284031215610d3f57610d3e610a9d565b5b600082013567ffffffffffffffff811115610d5d57610d5c610aa2565b5b610d6984828501610cfb565b91505092915050565b600081519050919050565b600082825260208201905092915050565b6000819050602082019050919050565b600082825260208201905092915050565b6000610dba82610b34565b610dc48185610d9e565b9350610dd4818560208601610b50565b610ddd81610b7a565b840191505092915050565b610df181610aa7565b82525050565b60006040830160008301518482036000860152610e148282610daf565b9150506020830151610e296020860182610de8565b508091505092915050565b6000610e408383610df7565b905092915050565b6000602082019050919050565b6000610e6082610d72565b610e6a8185610d7d565b935083602082028501610e7c85610d8e565b8060005b85811015610eb85784840389528151610e998582610e34565b9450610ea483610e48565b925060208a01995050600181019050610e80565b50829750879550505050505092915050565b60006020820190508181036000830152610ee48184610e55565b905092915050565b60008115159050919050565b610f0181610eec565b82525050565b6000602082019050610f1c6000830184610ef8565b92915050565b60008060408385031215610f3957610f38610a9d565b5b600083013567ffffffffffffffff811115610f5757610f56610aa2565b5b610f6385828601610cfb565b925050602083013567ffffffffffffffff811115610f8457610f83610aa2565b5b610f9085828601610cfb565b9150509250929050565b600081519050919050565b600082825260208201905092915050565b6000819050602082019050919050565b600073ffffffffffffffffffffffffffffffffffffffff82169050919050565b6000610ff182610fc6565b9050919050565b61100181610fe6565b82525050565b600060808301600083015184820360008601526110248282610daf565b9150506020830151848203602086015261103e8282610daf565b91505060408301516110536040860182610de8565b5060608301516110666060860182610ff8565b508091505092915050565b600061107d8383611007565b905092915050565b6000602082019050919050565b600061109d82610f9a565b6110a78185610fa5565b9350836020820285016110b985610fb6565b8060005b858110156110f557848403895281516110d68582611071565b94506110e183611085565b925060208a019950506001810190506110bd565b50829750879550505050505092915050565b600060208201905081810360008301526111218184611092565b905092915050565b61113281610fe6565b811461113d57600080fd5b50565b60008135905061114f81611129565b92915050565b60006020828403121561116b5761116a610a9d565b5b600061117984828501611140565b91505092915050565b7f596f75206861766520616c726561647920766f7465642e000000000000000000600082015250565b60006111b8601783610b3f565b91506111c382611182565b602082019050919050565b600060208201905081810360008301526111e7816111ab565b9050919050565b7f496e76616c69642063616e64696461746520696e6465782e0000000000000000600082015250565b6000611224601883610b3f565b915061122f826111ee565b602082019050919050565b6000602082019050818103600083015261125381611217565b9050919050565b7f4e487b7100000000000000000000000000000000000000000000000000000000600052603260045260246000fd5b7f4e487b7100000000000000000000000000000000000000000000000000000000600052601160045260246000fd5b60006112c382610aa7565b91507fffffffffffffffffffffffffffffffffffffffffffffffffffffffffffffffff82036112f5576112f4611289565b5b600182019050919050565b7f4e487b7100000000000000000000000000000000000000000000000000000000600052602260045260246000fd5b6000600282049050600182168061134757607f821691505b60208210810361135a57611359611300565b5b50919050565b60008190508160005260206000209050919050565b60006020601f8301049050919050565b600082821b905092915050565b6000600883026113c27fffffffffffffffffffffffffffffffffffffffffffffffffffffffffffffffff82611385565b6113cc8683611385565b95508019841693508086168417925050509392505050565b6000819050919050565b60006114096114046113ff84610aa7565b6113e4565b610aa7565b9050919050565b6000819050919050565b611423836113ee565b61143761142f82611410565b848454611392565b825550505050565b600090565b61144c61143f565b61145781848461141a565b505050565b5b8181101561147b57611470600082611444565b60018101905061145d565b5050565b601f8211156114c05761149181611360565b61149a84611375565b810160208510156114a9578190505b6114bd6114b585611375565b83018261145c565b50505b505050565b600082821c905092915050565b60006114e3600019846008026114c5565b1980831691505092915050565b60006114fc83836114d2565b9150826002028217905092915050565b61151582610b34565b67ffffffffffffffff81111561152e5761152d610bfe565b5b611538825461132f565b61154382828561147f565b600060209050601f8311600181146115765760008415611564578287015190505b61156e85826114f0565b8655506115d6565b601f19841661158486611360565b60005b828110156115ac57848901518255600182019150602085019450602081019050611587565b868310156115c957848901516115c5601f8916826114d2565b8355505b6001600288020188555050505b505050505050565b7f506c65617365207061792067726561746572207468616e203020657468657200600082015250565b6000611614601f83610b3f565b915061161f826115de565b602082019050919050565b6000602082019050818103600083015261164381611607565b9050919050565b7f566f74696e6720686173206e6f742073746172746564207965742e0000000000600082015250565b6000611680601b83610b3f565b915061168b8261164a565b602082019050919050565b600060208201905081810360008301526116af81611673565b9050919050565b60006116c182610aa7565b91506116cc83610aa7565b92508282039050818111156116e4576116e3611289565b5b9291505056fea2646970667358221220ed9bb855219141b9b019488addb184204d1c86aafb7e9ecb6966386f52c0ed8764736f6c63430008110033",
  "linkReferences": {},
  "deployedLinkReferences": {}
}