{
    "_format": "hh-sol-artifact-1",
    "contractName": "DKRCoin",
    "sourceName": "contracts/DKRCoin.sol",
    "abi": [
        {
            "inputs": [],
            "stateMutability": "nonpayable",
            "type": "constructor"
        },
        {
            "inputs": [],
            "name": "ApprovalCallerNotOwnerNorApproved",
            "type": "error"
        },
        {
            "inputs": [],
            "name": "ApprovalQueryForNonexistentToken",
            "type": "error"
        },
        {
            "inputs": [],
            "name": "BalanceQueryForZeroAddress",
            "type": "error"
        },
        {
            "inputs": [],
            "name": "MintERC2309QuantityExceedsLimit",
            "type": "error"
        },
        {
            "inputs": [],
            "name": "MintToZeroAddress",
            "type": "error"
        },
        {
            "inputs": [],
            "name": "MintZeroQuantity",
            "type": "error"
        },
        {
            "inputs": [],
            "name": "OwnerQueryForNonexistentToken",
            "type": "error"
        },
        {
            "inputs": [],
            "name": "OwnershipNotInitializedForExtraData",
            "type": "error"
        },
        {
            "inputs": [],
            "name": "TransferCallerNotOwnerNorApproved",
            "type": "error"
        },
        {
            "inputs": [],
            "name": "TransferFromIncorrectOwner",
            "type": "error"
        },
        {
            "inputs": [],
            "name": "TransferToNonERC721ReceiverImplementer",
            "type": "error"
        },
        {
            "inputs": [],
            "name": "TransferToZeroAddress",
            "type": "error"
        },
        {
            "inputs": [],
            "name": "URIQueryForNonexistentToken",
            "type": "error"
        },
        {
            "anonymous": false,
            "inputs": [
                {
                    "indexed": true,
                    "internalType": "address",
                    "name": "owner",
                    "type": "address"
                },
                {
                    "indexed": true,
                    "internalType": "address",
                    "name": "approved",
                    "type": "address"
                },
                {
                    "indexed": true,
                    "internalType": "uint256",
                    "name": "tokenId",
                    "type": "uint256"
                }
            ],
            "name": "Approval",
            "type": "event"
        },
        {
            "anonymous": false,
            "inputs": [
                {
                    "indexed": true,
                    "internalType": "address",
                    "name": "owner",
                    "type": "address"
                },
                {
                    "indexed": true,
                    "internalType": "address",
                    "name": "operator",
                    "type": "address"
                },
                {
                    "indexed": false,
                    "internalType": "bool",
                    "name": "approved",
                    "type": "bool"
                }
            ],
            "name": "ApprovalForAll",
            "type": "event"
        },
        {
            "anonymous": false,
            "inputs": [
                {
                    "indexed": true,
                    "internalType": "uint256",
                    "name": "fromTokenId",
                    "type": "uint256"
                },
                {
                    "indexed": false,
                    "internalType": "uint256",
                    "name": "toTokenId",
                    "type": "uint256"
                },
                {
                    "indexed": true,
                    "internalType": "address",
                    "name": "from",
                    "type": "address"
                },
                {
                    "indexed": true,
                    "internalType": "address",
                    "name": "to",
                    "type": "address"
                }
            ],
            "name": "ConsecutiveTransfer",
            "type": "event"
        },
        {
            "anonymous": false,
            "inputs": [
                {
                    "indexed": true,
                    "internalType": "address",
                    "name": "previousOwner",
                    "type": "address"
                },
                {
                    "indexed": true,
                    "internalType": "address",
                    "name": "newOwner",
                    "type": "address"
                }
            ],
            "name": "OwnershipTransferred",
            "type": "event"
        },
        {
            "anonymous": false,
            "inputs": [
                {
                    "indexed": true,
                    "internalType": "address",
                    "name": "from",
                    "type": "address"
                },
                {
                    "indexed": true,
                    "internalType": "address",
                    "name": "to",
                    "type": "address"
                },
                {
                    "indexed": true,
                    "internalType": "uint256",
                    "name": "tokenId",
                    "type": "uint256"
                }
            ],
            "name": "Transfer",
            "type": "event"
        },
        {
            "inputs": [
                {
                    "internalType": "address",
                    "name": "to",
                    "type": "address"
                },
                {
                    "internalType": "uint256",
                    "name": "tokenId",
                    "type": "uint256"
                }
            ],
            "name": "approve",
            "outputs": [],
            "stateMutability": "payable",
            "type": "function"
        },
        {
            "inputs": [
                {
                    "internalType": "address",
                    "name": "owner",
                    "type": "address"
                }
            ],
            "name": "balanceOf",
            "outputs": [
                {
                    "internalType": "uint256",
                    "name": "",
                    "type": "uint256"
                }
            ],
            "stateMutability": "view",
            "type": "function"
        },
        {
            "inputs": [],
            "name": "baseExtenstion",
            "outputs": [
                {
                    "internalType": "string",
                    "name": "",
                    "type": "string"
                }
            ],
            "stateMutability": "view",
            "type": "function"
        },
        {
            "inputs": [
                {
                    "internalType": "bool",
                    "name": "_publicMintOpen",
                    "type": "bool"
                }
            ],
            "name": "editMint",
            "outputs": [],
            "stateMutability": "nonpayable",
            "type": "function"
        },
        {
            "inputs": [
                {
                    "internalType": "uint256",
                    "name": "tokenId",
                    "type": "uint256"
                }
            ],
            "name": "getApproved",
            "outputs": [
                {
                    "internalType": "address",
                    "name": "",
                    "type": "address"
                }
            ],
            "stateMutability": "view",
            "type": "function"
        },
        {
            "inputs": [],
            "name": "getTotalTokensMinted",
            "outputs": [
                {
                    "internalType": "uint256",
                    "name": "",
                    "type": "uint256"
                }
            ],
            "stateMutability": "view",
            "type": "function"
        },
        {
            "inputs": [
                {
                    "internalType": "address",
                    "name": "owner",
                    "type": "address"
                },
                {
                    "internalType": "address",
                    "name": "operator",
                    "type": "address"
                }
            ],
            "name": "isApprovedForAll",
            "outputs": [
                {
                    "internalType": "bool",
                    "name": "",
                    "type": "bool"
                }
            ],
            "stateMutability": "view",
            "type": "function"
        },
        {
            "inputs": [
                {
                    "internalType": "uint256",
                    "name": "quantity",
                    "type": "uint256"
                }
            ],
            "name": "mint",
            "outputs": [],
            "stateMutability": "payable",
            "type": "function"
        },
        {
            "inputs": [
                {
                    "internalType": "uint256",
                    "name": "quantity",
                    "type": "uint256"
                }
            ],
            "name": "mintOwner",
            "outputs": [],
            "stateMutability": "nonpayable",
            "type": "function"
        },
        {
            "inputs": [],
            "name": "mintRate",
            "outputs": [
                {
                    "internalType": "uint256",
                    "name": "",
                    "type": "uint256"
                }
            ],
            "stateMutability": "view",
            "type": "function"
        },
        {
            "inputs": [],
            "name": "name",
            "outputs": [
                {
                    "internalType": "string",
                    "name": "",
                    "type": "string"
                }
            ],
            "stateMutability": "view",
            "type": "function"
        },
        {
            "inputs": [],
            "name": "owner",
            "outputs": [
                {
                    "internalType": "address",
                    "name": "",
                    "type": "address"
                }
            ],
            "stateMutability": "view",
            "type": "function"
        },
        {
            "inputs": [
                {
                    "internalType": "uint256",
                    "name": "tokenId",
                    "type": "uint256"
                }
            ],
            "name": "ownerOf",
            "outputs": [
                {
                    "internalType": "address",
                    "name": "",
                    "type": "address"
                }
            ],
            "stateMutability": "view",
            "type": "function"
        },
        {
            "inputs": [],
            "name": "publicMintOpen",
            "outputs": [
                {
                    "internalType": "bool",
                    "name": "",
                    "type": "bool"
                }
            ],
            "stateMutability": "view",
            "type": "function"
        },
        {
            "inputs": [],
            "name": "renounceOwnership",
            "outputs": [],
            "stateMutability": "nonpayable",
            "type": "function"
        },
        {
            "inputs": [
                {
                    "internalType": "address",
                    "name": "from",
                    "type": "address"
                },
                {
                    "internalType": "address",
                    "name": "to",
                    "type": "address"
                },
                {
                    "internalType": "uint256",
                    "name": "tokenId",
                    "type": "uint256"
                }
            ],
            "name": "safeTransferFrom",
            "outputs": [],
            "stateMutability": "payable",
            "type": "function"
        },
        {
            "inputs": [
                {
                    "internalType": "address",
                    "name": "from",
                    "type": "address"
                },
                {
                    "internalType": "address",
                    "name": "to",
                    "type": "address"
                },
                {
                    "internalType": "uint256",
                    "name": "tokenId",
                    "type": "uint256"
                },
                {
                    "internalType": "bytes",
                    "name": "_data",
                    "type": "bytes"
                }
            ],
            "name": "safeTransferFrom",
            "outputs": [],
            "stateMutability": "payable",
            "type": "function"
        },
        {
            "inputs": [
                {
                    "internalType": "address",
                    "name": "operator",
                    "type": "address"
                },
                {
                    "internalType": "bool",
                    "name": "approved",
                    "type": "bool"
                }
            ],
            "name": "setApprovalForAll",
            "outputs": [],
            "stateMutability": "nonpayable",
            "type": "function"
        },
        {
            "inputs": [
                {
                    "internalType": "string",
                    "name": "baseTokenUri_",
                    "type": "string"
                }
            ],
            "name": "setBaseTokenUri",
            "outputs": [],
            "stateMutability": "nonpayable",
            "type": "function"
        },
        {
            "inputs": [
                {
                    "internalType": "bytes4",
                    "name": "interfaceId",
                    "type": "bytes4"
                }
            ],
            "name": "supportsInterface",
            "outputs": [
                {
                    "internalType": "bool",
                    "name": "",
                    "type": "bool"
                }
            ],
            "stateMutability": "view",
            "type": "function"
        },
        {
            "inputs": [],
            "name": "symbol",
            "outputs": [
                {
                    "internalType": "string",
                    "name": "",
                    "type": "string"
                }
            ],
            "stateMutability": "view",
            "type": "function"
        },
        {
            "inputs": [
                {
                    "internalType": "uint256",
                    "name": "tokenId_",
                    "type": "uint256"
                }
            ],
            "name": "tokenURI",
            "outputs": [
                {
                    "internalType": "string",
                    "name": "",
                    "type": "string"
                }
            ],
            "stateMutability": "view",
            "type": "function"
        },
        {
            "inputs": [],
            "name": "totalSupply",
            "outputs": [
                {
                    "internalType": "uint256",
                    "name": "",
                    "type": "uint256"
                }
            ],
            "stateMutability": "view",
            "type": "function"
        },
        {
            "inputs": [],
            "name": "totalTokensMinted",
            "outputs": [
                {
                    "internalType": "uint256",
                    "name": "",
                    "type": "uint256"
                }
            ],
            "stateMutability": "view",
            "type": "function"
        },
        {
            "inputs": [
                {
                    "internalType": "address",
                    "name": "from",
                    "type": "address"
                },
                {
                    "internalType": "address",
                    "name": "to",
                    "type": "address"
                },
                {
                    "internalType": "uint256",
                    "name": "tokenId",
                    "type": "uint256"
                }
            ],
            "name": "transferFrom",
            "outputs": [],
            "stateMutability": "payable",
            "type": "function"
        },
        {
            "inputs": [
                {
                    "internalType": "address",
                    "name": "newOwner",
                    "type": "address"
                }
            ],
            "name": "transferOwnership",
            "outputs": [],
            "stateMutability": "nonpayable",
            "type": "function"
        },
        {
            "inputs": [
                {
                    "internalType": "address",
                    "name": "_addr",
                    "type": "address"
                }
            ],
            "name": "withdraw",
            "outputs": [],
            "stateMutability": "nonpayable",
            "type": "function"
        },
        {
            "stateMutability": "payable",
            "type": "receive"
        }
    ],
    "bytecode": "0x608060405260036009556064600a55600a600b556611c37937e08000600c556040518060400160405280600581526020017f2e6a736f6e000000000000000000000000000000000000000000000000000000815250600e9081620000649190620004ad565b506000601060006101000a81548160ff0219169083151502179055503480156200008d57600080fd5b506040518060400160405280600781526020017f444b52436f696e000000000000000000000000000000000000000000000000008152506040518060400160405280600381526020017f444b52000000000000000000000000000000000000000000000000000000000081525081600290816200010b9190620004ad565b5080600390816200011d9190620004ad565b506200012e6200015c60201b60201c565b6000819055505050620001566200014a6200016560201b60201c565b6200016d60201b60201c565b62000594565b60006001905090565b600033905090565b6000600860009054906101000a900473ffffffffffffffffffffffffffffffffffffffff16905081600860006101000a81548173ffffffffffffffffffffffffffffffffffffffff021916908373ffffffffffffffffffffffffffffffffffffffff1602179055508173ffffffffffffffffffffffffffffffffffffffff168173ffffffffffffffffffffffffffffffffffffffff167f8be0079c531659141344cd1fd0a4f28419497f9722a3daafe3b4186f6b6457e060405160405180910390a35050565b600081519050919050565b7f4e487b7100000000000000000000000000000000000000000000000000000000600052604160045260246000fd5b7f4e487b7100000000000000000000000000000000000000000000000000000000600052602260045260246000fd5b60006002820490506001821680620002b557607f821691505b602082108103620002cb57620002ca6200026d565b5b50919050565b60008190508160005260206000209050919050565b60006020601f8301049050919050565b600082821b905092915050565b600060088302620003357fffffffffffffffffffffffffffffffffffffffffffffffffffffffffffffffff82620002f6565b620003418683620002f6565b95508019841693508086168417925050509392505050565b6000819050919050565b6000819050919050565b60006200038e62000388620003828462000359565b62000363565b62000359565b9050919050565b6000819050919050565b620003aa836200036d565b620003c2620003b98262000395565b84845462000303565b825550505050565b600090565b620003d9620003ca565b620003e68184846200039f565b505050565b5b818110156200040e5762000402600082620003cf565b600181019050620003ec565b5050565b601f8211156200045d576200042781620002d1565b6200043284620002e6565b8101602085101562000442578190505b6200045a6200045185620002e6565b830182620003eb565b50505b505050565b600082821c905092915050565b6000620004826000198460080262000462565b1980831691505092915050565b60006200049d83836200046f565b9150826002028217905092915050565b620004b88262000233565b67ffffffffffffffff811115620004d457620004d36200023e565b5b620004e082546200029c565b620004ed82828562000412565b600060209050601f83116001811462000525576000841562000510578287015190505b6200051c85826200048f565b8655506200058c565b601f1984166200053586620002d1565b60005b828110156200055f5784890151825560018201915060208501945060208101905062000538565b868310156200057f57848901516200057b601f8916826200046f565b8355505b6001600288020188555050505b505050505050565b612e1280620005a46000396000f3fe6080604052600436106101a05760003560e01c806385b9b611116100ec578063b88d4fde1161008a578063ca0dcf1611610064578063ca0dcf161461057c578063d6e2575d146105a7578063e985e9c5146105d0578063f2fde38b1461060d576101a7565b8063b88d4fde146104f8578063bcc9ca5b14610514578063c87b56dd1461053f576101a7565b80639585f5af116100c65780639585f5af1461045d57806395d89b4114610488578063a0712d68146104b3578063a22cb465146104cf576101a7565b806385b9b611146103de5780638da5cb5b1461040957806395652cfa14610434576101a7565b806333f88d22116101595780636352211e116101335780636352211e1461032257806370a082311461035f578063715018a61461039c5780637d549e99146103b3576101a7565b806333f88d22146102b457806342842e0e146102dd57806351cff8d9146102f9576101a7565b806301ffc9a7146101ac57806306fdde03146101e9578063081812fc14610214578063095ea7b31461025157806318160ddd1461026d57806323b872dd14610298576101a7565b366101a757005b600080fd5b3480156101b857600080fd5b506101d360048036038101906101ce9190611e8e565b610636565b6040516101e09190611ed6565b60405180910390f35b3480156101f557600080fd5b506101fe6106c8565b60405161020b9190611f81565b60405180910390f35b34801561022057600080fd5b5061023b60048036038101906102369190611fd9565b61075a565b6040516102489190612047565b60405180910390f35b61026b6004803603810190610266919061208e565b6107d9565b005b34801561027957600080fd5b5061028261091d565b60405161028f91906120dd565b60405180910390f35b6102b260048036038101906102ad91906120f8565b610934565b005b3480156102c057600080fd5b506102db60048036038101906102d69190611fd9565b610c56565b005b6102f760048036038101906102f291906120f8565b610cdb565b005b34801561030557600080fd5b50610320600480360381019061031b919061214b565b610cfb565b005b34801561032e57600080fd5b5061034960048036038101906103449190611fd9565b610d53565b6040516103569190612047565b60405180910390f35b34801561036b57600080fd5b506103866004803603810190610381919061214b565b610d65565b60405161039391906120dd565b60405180910390f35b3480156103a857600080fd5b506103b1610e1d565b005b3480156103bf57600080fd5b506103c8610e31565b6040516103d591906120dd565b60405180910390f35b3480156103ea57600080fd5b506103f3610e37565b60405161040091906120dd565b60405180910390f35b34801561041557600080fd5b5061041e610e41565b60405161042b9190612047565b60405180910390f35b34801561044057600080fd5b5061045b600480360381019061045691906121dd565b610e6b565b005b34801561046957600080fd5b50610472610e89565b60405161047f9190611f81565b60405180910390f35b34801561049457600080fd5b5061049d610f17565b6040516104aa9190611f81565b60405180910390f35b6104cd60048036038101906104c89190611fd9565b610fa9565b005b3480156104db57600080fd5b506104f660048036038101906104f19190612256565b61112a565b005b610512600480360381019061050d91906123c6565b611235565b005b34801561052057600080fd5b506105296112a8565b6040516105369190611ed6565b60405180910390f35b34801561054b57600080fd5b5061056660048036038101906105619190611fd9565b6112bb565b6040516105739190611f81565b60405180910390f35b34801561058857600080fd5b50610591611337565b60405161059e91906120dd565b60405180910390f35b3480156105b357600080fd5b506105ce60048036038101906105c99190612449565b61133d565b005b3480156105dc57600080fd5b506105f760048036038101906105f29190612476565b611362565b6040516106049190611ed6565b60405180910390f35b34801561061957600080fd5b50610634600480360381019061062f919061214b565b6113f6565b005b60006301ffc9a760e01b827bffffffffffffffffffffffffffffffffffffffffffffffffffffffff1916148061069157506380ac58cd60e01b827bffffffffffffffffffffffffffffffffffffffffffffffffffffffff1916145b806106c15750635b5e139f60e01b827bffffffffffffffffffffffffffffffffffffffffffffffffffffffff1916145b9050919050565b6060600280546106d7906124e5565b80601f0160208091040260200160405190810160405280929190818152602001828054610703906124e5565b80156107505780601f1061072557610100808354040283529160200191610750565b820191906000526020600020905b81548152906001019060200180831161073357829003601f168201915b5050505050905090565b600061076582611479565b61079b576040517fcf4700e400000000000000000000000000000000000000000000000000000000815260040160405180910390fd5b6006600083815260200190815260200160002060000160009054906101000a900473ffffffffffffffffffffffffffffffffffffffff169050919050565b60006107e482610d53565b90508073ffffffffffffffffffffffffffffffffffffffff166108056114d8565b73ffffffffffffffffffffffffffffffffffffffff1614610868576108318161082c6114d8565b611362565b610867576040517fcfb3b94200000000000000000000000000000000000000000000000000000000815260040160405180910390fd5b5b826006600084815260200190815260200160002060000160006101000a81548173ffffffffffffffffffffffffffffffffffffffff021916908373ffffffffffffffffffffffffffffffffffffffff160217905550818373ffffffffffffffffffffffffffffffffffffffff168273ffffffffffffffffffffffffffffffffffffffff167f8c5be1e5ebec7d5bd14f71427d1e84f3dd0314c0f7b2291e5b200ac8c7c3b92560405160405180910390a4505050565b60006109276114e0565b6001546000540303905090565b600061093f826114e9565b90508373ffffffffffffffffffffffffffffffffffffffff168173ffffffffffffffffffffffffffffffffffffffff16146109a6576040517fa114810000000000000000000000000000000000000000000000000000000000815260040160405180910390fd5b6000806109b2846115b5565b915091506109c881876109c36114d8565b6115dc565b610a14576109dd866109d86114d8565b611362565b610a13576040517f59c896be00000000000000000000000000000000000000000000000000000000815260040160405180910390fd5b5b600073ffffffffffffffffffffffffffffffffffffffff168573ffffffffffffffffffffffffffffffffffffffff1603610a7a576040517fea553b3400000000000000000000000000000000000000000000000000000000815260040160405180910390fd5b610a878686866001611620565b8015610a9257600082555b600560008773ffffffffffffffffffffffffffffffffffffffff1673ffffffffffffffffffffffffffffffffffffffff168152602001908152602001600020600081546001900391905081905550600560008673ffffffffffffffffffffffffffffffffffffffff1673ffffffffffffffffffffffffffffffffffffffff1681526020019081526020016000206000815460010191905081905550610b6085610b3c888887611626565b7c02000000000000000000000000000000000000000000000000000000001761164e565b600460008681526020019081526020016000208190555060007c0200000000000000000000000000000000000000000000000000000000841603610be65760006001850190506000600460008381526020019081526020016000205403610be4576000548114610be3578360046000838152602001908152602001600020819055505b5b505b838573ffffffffffffffffffffffffffffffffffffffff168773ffffffffffffffffffffffffffffffffffffffff167fddf252ad1be2c89b69c2b068fc378daa952ba7f163c4a11628f55a4df523b3ef60405160405180910390a4610c4e8686866001611679565b505050505050565b610c5e61167f565b600a5481610c6a61091d565b610c749190612545565b1115610cb5576040517f08c379a0000000000000000000000000000000000000000000000000000000008152600401610cac906125c5565b60405180910390fd5b610cbf33826116fd565b80600d6000828254610cd19190612545565b9250508190555050565b610cf683838360405180602001604052806000815250611235565b505050565b610d0361167f565b60004790508173ffffffffffffffffffffffffffffffffffffffff166108fc829081150290604051600060405180830381858888f19350505050158015610d4e573d6000803e3d6000fd5b505050565b6000610d5e826114e9565b9050919050565b60008073ffffffffffffffffffffffffffffffffffffffff168273ffffffffffffffffffffffffffffffffffffffff1603610dcc576040517f8f4eb60400000000000000000000000000000000000000000000000000000000815260040160405180910390fd5b67ffffffffffffffff600560008473ffffffffffffffffffffffffffffffffffffffff1673ffffffffffffffffffffffffffffffffffffffff16815260200190815260200160002054169050919050565b610e2561167f565b610e2f600061171b565b565b600d5481565b6000600d54905090565b6000600860009054906101000a900473ffffffffffffffffffffffffffffffffffffffff16905090565b610e7361167f565b8181600f9182610e8492919061279c565b505050565b600e8054610e96906124e5565b80601f0160208091040260200160405190810160405280929190818152602001828054610ec2906124e5565b8015610f0f5780601f10610ee457610100808354040283529160200191610f0f565b820191906000526020600020905b815481529060010190602001808311610ef257829003601f168201915b505050505081565b606060038054610f26906124e5565b80601f0160208091040260200160405190810160405280929190818152602001828054610f52906124e5565b8015610f9f5780601f10610f7457610100808354040283529160200191610f9f565b820191906000526020600020905b815481529060010190602001808311610f8257829003601f168201915b5050505050905090565b601060009054906101000a900460ff16610ff8576040517f08c379a0000000000000000000000000000000000000000000000000000000008152600401610fef906128b8565b60405180910390fd5b600954611004336117e1565b8261100f9190612545565b1115611050576040517f08c379a000000000000000000000000000000000000000000000000000000000815260040161104790612924565b60405180910390fd5b600b54600a546110609190612944565b8161106961091d565b6110739190612545565b11156110b4576040517f08c379a00000000000000000000000000000000000000000000000000000000081526004016110ab906125c5565b60405180910390fd5b80600c546110c29190612978565b341015611104576040517f08c379a00000000000000000000000000000000000000000000000000000000081526004016110fb90612a06565b60405180910390fd5b61110e33826116fd565b80600d60008282546111209190612545565b9250508190555050565b80600760006111376114d8565b73ffffffffffffffffffffffffffffffffffffffff1673ffffffffffffffffffffffffffffffffffffffff16815260200190815260200160002060008473ffffffffffffffffffffffffffffffffffffffff1673ffffffffffffffffffffffffffffffffffffffff16815260200190815260200160002060006101000a81548160ff0219169083151502179055508173ffffffffffffffffffffffffffffffffffffffff166111e46114d8565b73ffffffffffffffffffffffffffffffffffffffff167f17307eab39ab6107e8899845ad3d59bd9653f200f220920489ca2b5937696c31836040516112299190611ed6565b60405180910390a35050565b611240848484610934565b60008373ffffffffffffffffffffffffffffffffffffffff163b146112a25761126b84848484611838565b6112a1576040517fd1a57ed600000000000000000000000000000000000000000000000000000000815260040160405180910390fd5b5b50505050565b601060009054906101000a900460ff1681565b60606112c682611479565b611305576040517f08c379a00000000000000000000000000000000000000000000000000000000081526004016112fc90612a72565b60405180910390fd5b600f61131083611988565b604051602001611321929190612b9d565b6040516020818303038152906040529050919050565b600c5481565b61134561167f565b80601060006101000a81548160ff02191690831515021790555050565b6000600760008473ffffffffffffffffffffffffffffffffffffffff1673ffffffffffffffffffffffffffffffffffffffff16815260200190815260200160002060008373ffffffffffffffffffffffffffffffffffffffff1673ffffffffffffffffffffffffffffffffffffffff16815260200190815260200160002060009054906101000a900460ff16905092915050565b6113fe61167f565b600073ffffffffffffffffffffffffffffffffffffffff168173ffffffffffffffffffffffffffffffffffffffff160361146d576040517f08c379a000000000000000000000000000000000000000000000000000000000815260040161146490612c3e565b60405180910390fd5b6114768161171b565b50565b6000816114846114e0565b11158015611493575060005482105b80156114d1575060007c0100000000000000000000000000000000000000000000000000000000600460008581526020019081526020016000205416145b9050919050565b600033905090565b60006001905090565b600080829050806114f86114e0565b1161157e5760005481101561157d5760006004600083815260200190815260200160002054905060007c010000000000000000000000000000000000000000000000000000000082160361157b575b60008103611571576004600083600190039350838152602001908152602001600020549050611547565b80925050506115b0565b505b5b6040517fdf2d9b4200000000000000000000000000000000000000000000000000000000815260040160405180910390fd5b919050565b60008060006006600085815260200190815260200160002090508092508254915050915091565b600073ffffffffffffffffffffffffffffffffffffffff8316925073ffffffffffffffffffffffffffffffffffffffff821691508382148383141790509392505050565b50505050565b60008060e883901c905060e861163d868684611a56565b62ffffff16901b9150509392505050565b600073ffffffffffffffffffffffffffffffffffffffff83169250814260a01b178317905092915050565b50505050565b611687611a5f565b73ffffffffffffffffffffffffffffffffffffffff166116a5610e41565b73ffffffffffffffffffffffffffffffffffffffff16146116fb576040517f08c379a00000000000000000000000000000000000000000000000000000000081526004016116f290612caa565b60405180910390fd5b565b611717828260405180602001604052806000815250611a67565b5050565b6000600860009054906101000a900473ffffffffffffffffffffffffffffffffffffffff16905081600860006101000a81548173ffffffffffffffffffffffffffffffffffffffff021916908373ffffffffffffffffffffffffffffffffffffffff1602179055508173ffffffffffffffffffffffffffffffffffffffff168173ffffffffffffffffffffffffffffffffffffffff167f8be0079c531659141344cd1fd0a4f28419497f9722a3daafe3b4186f6b6457e060405160405180910390a35050565b600067ffffffffffffffff6040600560008573ffffffffffffffffffffffffffffffffffffffff1673ffffffffffffffffffffffffffffffffffffffff16815260200190815260200160002054901c169050919050565b60008373ffffffffffffffffffffffffffffffffffffffff1663150b7a0261185e6114d8565b8786866040518563ffffffff1660e01b81526004016118809493929190612d1f565b6020604051808303816000875af19250505080156118bc57506040513d601f19601f820116820180604052508101906118b99190612d80565b60015b611935573d80600081146118ec576040519150601f19603f3d011682016040523d82523d6000602084013e6118f1565b606091505b50600081510361192d576040517fd1a57ed600000000000000000000000000000000000000000000000000000000815260040160405180910390fd5b805181602001fd5b63150b7a0260e01b7bffffffffffffffffffffffffffffffffffffffffffffffffffffffff1916817bffffffffffffffffffffffffffffffffffffffffffffffffffffffff191614915050949350505050565b60606000600161199784611b04565b01905060008167ffffffffffffffff8111156119b6576119b561229b565b5b6040519080825280601f01601f1916602001820160405280156119e85781602001600182028036833780820191505090505b509050600082602001820190505b600115611a4b578080600190039150507f3031323334353637383961626364656600000000000000000000000000000000600a86061a8153600a8581611a3f57611a3e612dad565b5b049450600085036119f6575b819350505050919050565b60009392505050565b600033905090565b611a718383611c57565b60008373ffffffffffffffffffffffffffffffffffffffff163b14611aff57600080549050600083820390505b611ab16000868380600101945086611838565b611ae7576040517fd1a57ed600000000000000000000000000000000000000000000000000000000815260040160405180910390fd5b818110611a9e578160005414611afc57600080fd5b50505b505050565b600080600090507a184f03e93ff9f4daa797ed6e38ed64bf6a1f0100000000000000008310611b62577a184f03e93ff9f4daa797ed6e38ed64bf6a1f0100000000000000008381611b5857611b57612dad565b5b0492506040810190505b6d04ee2d6d415b85acef81000000008310611b9f576d04ee2d6d415b85acef81000000008381611b9557611b94612dad565b5b0492506020810190505b662386f26fc100008310611bce57662386f26fc100008381611bc457611bc3612dad565b5b0492506010810190505b6305f5e1008310611bf7576305f5e1008381611bed57611bec612dad565b5b0492506008810190505b6127108310611c1c576127108381611c1257611c11612dad565b5b0492506004810190505b60648310611c3f5760648381611c3557611c34612dad565b5b0492506002810190505b600a8310611c4e576001810190505b80915050919050565b60008054905060008203611c97576040517fb562e8dd00000000000000000000000000000000000000000000000000000000815260040160405180910390fd5b611ca46000848385611620565b600160406001901b178202600560008573ffffffffffffffffffffffffffffffffffffffff1673ffffffffffffffffffffffffffffffffffffffff16815260200190815260200160002060008282540192505081905550611d1b83611d0c6000866000611626565b611d1585611e12565b1761164e565b6004600083815260200190815260200160002081905550600080838301905073ffffffffffffffffffffffffffffffffffffffff85169150828260007fddf252ad1be2c89b69c2b068fc378daa952ba7f163c4a11628f55a4df523b3ef600080a4600183015b818114611dbc57808360007fddf252ad1be2c89b69c2b068fc378daa952ba7f163c4a11628f55a4df523b3ef600080a4600181019050611d81565b5060008203611df7576040517f2e07630000000000000000000000000000000000000000000000000000000000815260040160405180910390fd5b806000819055505050611e0d6000848385611679565b505050565b60006001821460e11b9050919050565b6000604051905090565b600080fd5b600080fd5b60007fffffffff0000000000000000000000000000000000000000000000000000000082169050919050565b611e6b81611e36565b8114611e7657600080fd5b50565b600081359050611e8881611e62565b92915050565b600060208284031215611ea457611ea3611e2c565b5b6000611eb284828501611e79565b91505092915050565b60008115159050919050565b611ed081611ebb565b82525050565b6000602082019050611eeb6000830184611ec7565b92915050565b600081519050919050565b600082825260208201905092915050565b60005b83811015611f2b578082015181840152602081019050611f10565b60008484015250505050565b6000601f19601f8301169050919050565b6000611f5382611ef1565b611f5d8185611efc565b9350611f6d818560208601611f0d565b611f7681611f37565b840191505092915050565b60006020820190508181036000830152611f9b8184611f48565b905092915050565b6000819050919050565b611fb681611fa3565b8114611fc157600080fd5b50565b600081359050611fd381611fad565b92915050565b600060208284031215611fef57611fee611e2c565b5b6000611ffd84828501611fc4565b91505092915050565b600073ffffffffffffffffffffffffffffffffffffffff82169050919050565b600061203182612006565b9050919050565b61204181612026565b82525050565b600060208201905061205c6000830184612038565b92915050565b61206b81612026565b811461207657600080fd5b50565b60008135905061208881612062565b92915050565b600080604083850312156120a5576120a4611e2c565b5b60006120b385828601612079565b92505060206120c485828601611fc4565b9150509250929050565b6120d781611fa3565b82525050565b60006020820190506120f260008301846120ce565b92915050565b60008060006060848603121561211157612110611e2c565b5b600061211f86828701612079565b935050602061213086828701612079565b925050604061214186828701611fc4565b9150509250925092565b60006020828403121561216157612160611e2c565b5b600061216f84828501612079565b91505092915050565b600080fd5b600080fd5b600080fd5b60008083601f84011261219d5761219c612178565b5b8235905067ffffffffffffffff8111156121ba576121b961217d565b5b6020830191508360018202830111156121d6576121d5612182565b5b9250929050565b600080602083850312156121f4576121f3611e2c565b5b600083013567ffffffffffffffff81111561221257612211611e31565b5b61221e85828601612187565b92509250509250929050565b61223381611ebb565b811461223e57600080fd5b50565b6000813590506122508161222a565b92915050565b6000806040838503121561226d5761226c611e2c565b5b600061227b85828601612079565b925050602061228c85828601612241565b9150509250929050565b600080fd5b7f4e487b7100000000000000000000000000000000000000000000000000000000600052604160045260246000fd5b6122d382611f37565b810181811067ffffffffffffffff821117156122f2576122f161229b565b5b80604052505050565b6000612305611e22565b905061231182826122ca565b919050565b600067ffffffffffffffff8211156123315761233061229b565b5b61233a82611f37565b9050602081019050919050565b82818337600083830152505050565b600061236961236484612316565b6122fb565b90508281526020810184848401111561238557612384612296565b5b612390848285612347565b509392505050565b600082601f8301126123ad576123ac612178565b5b81356123bd848260208601612356565b91505092915050565b600080600080608085870312156123e0576123df611e2c565b5b60006123ee87828801612079565b94505060206123ff87828801612079565b935050604061241087828801611fc4565b925050606085013567ffffffffffffffff81111561243157612430611e31565b5b61243d87828801612398565b91505092959194509250565b60006020828403121561245f5761245e611e2c565b5b600061246d84828501612241565b91505092915050565b6000806040838503121561248d5761248c611e2c565b5b600061249b85828601612079565b92505060206124ac85828601612079565b9150509250929050565b7f4e487b7100000000000000000000000000000000000000000000000000000000600052602260045260246000fd5b600060028204905060018216806124fd57607f821691505b6020821081036125105761250f6124b6565b5b50919050565b7f4e487b7100000000000000000000000000000000000000000000000000000000600052601160045260246000fd5b600061255082611fa3565b915061255b83611fa3565b925082820190508082111561257357612572612516565b5b92915050565b7f534f4c44204f5554000000000000000000000000000000000000000000000000600082015250565b60006125af600883611efc565b91506125ba82612579565b602082019050919050565b600060208201905081810360008301526125de816125a2565b9050919050565b600082905092915050565b60008190508160005260206000209050919050565b60006020601f8301049050919050565b600082821b905092915050565b6000600883026126527fffffffffffffffffffffffffffffffffffffffffffffffffffffffffffffffff82612615565b61265c8683612615565b95508019841693508086168417925050509392505050565b6000819050919050565b600061269961269461268f84611fa3565b612674565b611fa3565b9050919050565b6000819050919050565b6126b38361267e565b6126c76126bf826126a0565b848454612622565b825550505050565b600090565b6126dc6126cf565b6126e78184846126aa565b505050565b5b8181101561270b576127006000826126d4565b6001810190506126ed565b5050565b601f82111561275057612721816125f0565b61272a84612605565b81016020851015612739578190505b61274d61274585612605565b8301826126ec565b50505b505050565b600082821c905092915050565b600061277360001984600802612755565b1980831691505092915050565b600061278c8383612762565b9150826002028217905092915050565b6127a683836125e5565b67ffffffffffffffff8111156127bf576127be61229b565b5b6127c982546124e5565b6127d482828561270f565b6000601f83116001811461280357600084156127f1578287013590505b6127fb8582612780565b865550612863565b601f198416612811866125f0565b60005b8281101561283957848901358255600182019150602085019450602081019050612814565b868310156128565784890135612852601f891682612762565b8355505b6001600288020188555050505b50505050505050565b7f5075626c6963204d696e7420436c6f7365640000000000000000000000000000600082015250565b60006128a2601283611efc565b91506128ad8261286c565b602082019050919050565b600060208201905081810360008301526128d181612895565b9050919050565b7f496e76616c6964207175616e7469747900000000000000000000000000000000600082015250565b600061290e601083611efc565b9150612919826128d8565b602082019050919050565b6000602082019050818103600083015261293d81612901565b9050919050565b600061294f82611fa3565b915061295a83611fa3565b925082820390508181111561297257612971612516565b5b92915050565b600061298382611fa3565b915061298e83611fa3565b925082820261299c81611fa3565b915082820484148315176129b3576129b2612516565b5b5092915050565b7f6e6f7420656e6f75676820657468657200000000000000000000000000000000600082015250565b60006129f0601083611efc565b91506129fb826129ba565b602082019050919050565b60006020820190508181036000830152612a1f816129e3565b9050919050565b7f546f6b656e20646f6573206e6f74206578697374000000000000000000000000600082015250565b6000612a5c601483611efc565b9150612a6782612a26565b602082019050919050565b60006020820190508181036000830152612a8b81612a4f565b9050919050565b600081905092915050565b60008154612aaa816124e5565b612ab48186612a92565b94506001821660008114612acf5760018114612ae457612b17565b60ff1983168652811515820286019350612b17565b612aed856125f0565b60005b83811015612b0f57815481890152600182019150602081019050612af0565b838801955050505b50505092915050565b6000612b2b82611ef1565b612b358185612a92565b9350612b45818560208601611f0d565b80840191505092915050565b7f2e6a736f6e000000000000000000000000000000000000000000000000000000600082015250565b6000612b87600583612a92565b9150612b9282612b51565b600582019050919050565b6000612ba98285612a9d565b9150612bb58284612b20565b9150612bc082612b7a565b91508190509392505050565b7f4f776e61626c653a206e6577206f776e657220697320746865207a65726f206160008201527f6464726573730000000000000000000000000000000000000000000000000000602082015250565b6000612c28602683611efc565b9150612c3382612bcc565b604082019050919050565b60006020820190508181036000830152612c5781612c1b565b9050919050565b7f4f776e61626c653a2063616c6c6572206973206e6f7420746865206f776e6572600082015250565b6000612c94602083611efc565b9150612c9f82612c5e565b602082019050919050565b60006020820190508181036000830152612cc381612c87565b9050919050565b600081519050919050565b600082825260208201905092915050565b6000612cf182612cca565b612cfb8185612cd5565b9350612d0b818560208601611f0d565b612d1481611f37565b840191505092915050565b6000608082019050612d346000830187612038565b612d416020830186612038565b612d4e60408301856120ce565b8181036060830152612d608184612ce6565b905095945050505050565b600081519050612d7a81611e62565b92915050565b600060208284031215612d9657612d95611e2c565b5b6000612da484828501612d6b565b91505092915050565b7f4e487b7100000000000000000000000000000000000000000000000000000000600052601260045260246000fdfea2646970667358221220d92013e5f53d6800962c01de2575e4791231b18fdbd5f0e004eb7ba94444a34b64736f6c63430008110033",
    "linkReferences": {},
    "deployedLinkReferences": {}
}